{
  "_format": "hh-sol-artifact-1",
  "contractName": "GodsLegacy",
  "sourceName": "contracts/GodsLegacy.sol",
  "abi": [
    {
      "inputs": [
        {
          "internalType": "address",
          "name": "_initialOwner",
          "type": "address"
        }
      ],
      "stateMutability": "nonpayable",
      "type": "constructor"
    },
    {
      "inputs": [
        {
          "internalType": "address",
          "name": "spender",
          "type": "address"
        },
        {
          "internalType": "uint256",
          "name": "allowance",
          "type": "uint256"
        },
        {
          "internalType": "uint256",
          "name": "needed",
          "type": "uint256"
        }
      ],
      "name": "ERC20InsufficientAllowance",
      "type": "error"
    },
    {
      "inputs": [
        {
          "internalType": "address",
          "name": "sender",
          "type": "address"
        },
        {
          "internalType": "uint256",
          "name": "balance",
          "type": "uint256"
        },
        {
          "internalType": "uint256",
          "name": "needed",
          "type": "uint256"
        }
      ],
      "name": "ERC20InsufficientBalance",
      "type": "error"
    },
    {
      "inputs": [
        {
          "internalType": "address",
          "name": "approver",
          "type": "address"
        }
      ],
      "name": "ERC20InvalidApprover",
      "type": "error"
    },
    {
      "inputs": [
        {
          "internalType": "address",
          "name": "receiver",
          "type": "address"
        }
      ],
      "name": "ERC20InvalidReceiver",
      "type": "error"
    },
    {
      "inputs": [
        {
          "internalType": "address",
          "name": "sender",
          "type": "address"
        }
      ],
      "name": "ERC20InvalidSender",
      "type": "error"
    },
    {
      "inputs": [
        {
          "internalType": "address",
          "name": "spender",
          "type": "address"
        }
      ],
      "name": "ERC20InvalidSpender",
      "type": "error"
    },
    {
      "inputs": [
        {
          "internalType": "address",
          "name": "owner",
          "type": "address"
        }
      ],
      "name": "OwnableInvalidOwner",
      "type": "error"
    },
    {
      "inputs": [
        {
          "internalType": "address",
          "name": "account",
          "type": "address"
        }
      ],
      "name": "OwnableUnauthorizedAccount",
      "type": "error"
    },
    {
      "anonymous": false,
      "inputs": [
        {
          "indexed": true,
          "internalType": "address",
          "name": "owner",
          "type": "address"
        },
        {
          "indexed": true,
          "internalType": "address",
          "name": "spender",
          "type": "address"
        },
        {
          "indexed": false,
          "internalType": "uint256",
          "name": "value",
          "type": "uint256"
        }
      ],
      "name": "Approval",
      "type": "event"
    },
    {
      "anonymous": false,
      "inputs": [
        {
          "indexed": true,
          "internalType": "address",
          "name": "depositor",
          "type": "address"
        },
        {
          "indexed": false,
          "internalType": "uint256",
          "name": "amount",
          "type": "uint256"
        }
      ],
      "name": "EtherDeposited",
      "type": "event"
    },
    {
      "anonymous": false,
      "inputs": [
        {
          "indexed": true,
          "internalType": "address",
          "name": "previousOwner",
          "type": "address"
        },
        {
          "indexed": true,
          "internalType": "address",
          "name": "newOwner",
          "type": "address"
        }
      ],
      "name": "OwnershipTransferred",
      "type": "event"
    },
    {
      "anonymous": false,
      "inputs": [
        {
          "indexed": true,
          "internalType": "address",
          "name": "from",
          "type": "address"
        },
        {
          "indexed": true,
          "internalType": "address",
          "name": "to",
          "type": "address"
        },
        {
          "indexed": false,
          "internalType": "uint256",
          "name": "value",
          "type": "uint256"
        }
      ],
      "name": "Transfer",
      "type": "event"
    },
    {
      "inputs": [
        {
          "internalType": "address",
          "name": "owner",
          "type": "address"
        },
        {
          "internalType": "address",
          "name": "spender",
          "type": "address"
        }
      ],
      "name": "allowance",
      "outputs": [
        {
          "internalType": "uint256",
          "name": "",
          "type": "uint256"
        }
      ],
      "stateMutability": "view",
      "type": "function"
    },
    {
      "inputs": [
        {
          "internalType": "address",
          "name": "spender",
          "type": "address"
        },
        {
          "internalType": "uint256",
          "name": "value",
          "type": "uint256"
        }
      ],
      "name": "approve",
      "outputs": [
        {
          "internalType": "bool",
          "name": "",
          "type": "bool"
        }
      ],
      "stateMutability": "nonpayable",
      "type": "function"
    },
    {
      "inputs": [
        {
          "internalType": "address",
          "name": "account",
          "type": "address"
        }
      ],
      "name": "balanceOf",
      "outputs": [
        {
          "internalType": "uint256",
          "name": "",
          "type": "uint256"
        }
      ],
      "stateMutability": "view",
      "type": "function"
    },
    {
      "inputs": [],
      "name": "burnRate",
      "outputs": [
        {
          "internalType": "uint256",
          "name": "",
          "type": "uint256"
        }
      ],
      "stateMutability": "view",
      "type": "function"
    },
    {
      "inputs": [],
      "name": "decimals",
      "outputs": [
        {
          "internalType": "uint8",
          "name": "",
          "type": "uint8"
        }
      ],
      "stateMutability": "view",
      "type": "function"
    },
    {
      "inputs": [],
      "name": "disableTransferWithBurn",
      "outputs": [],
      "stateMutability": "nonpayable",
      "type": "function"
    },
    {
      "inputs": [],
      "name": "enableTransferWithBurn",
      "outputs": [],
      "stateMutability": "nonpayable",
      "type": "function"
    },
    {
      "inputs": [],
      "name": "getContractBalance",
      "outputs": [
        {
          "internalType": "uint256",
          "name": "",
          "type": "uint256"
        }
      ],
      "stateMutability": "view",
      "type": "function"
    },
    {
      "inputs": [],
      "name": "isOwner",
      "outputs": [
        {
          "internalType": "bool",
          "name": "",
          "type": "bool"
        }
      ],
      "stateMutability": "view",
      "type": "function"
    },
    {
      "inputs": [],
      "name": "isTransferWithBurnEnabled",
      "outputs": [
        {
          "internalType": "bool",
          "name": "",
          "type": "bool"
        }
      ],
      "stateMutability": "view",
      "type": "function"
    },
    {
      "inputs": [
        {
          "internalType": "uint256",
          "name": "_amount",
          "type": "uint256"
        }
      ],
      "name": "mint",
      "outputs": [],
      "stateMutability": "nonpayable",
      "type": "function"
    },
    {
      "inputs": [],
      "name": "name",
      "outputs": [
        {
          "internalType": "string",
          "name": "",
          "type": "string"
        }
      ],
      "stateMutability": "view",
      "type": "function"
    },
    {
      "inputs": [],
      "name": "owner",
      "outputs": [
        {
          "internalType": "address",
          "name": "",
          "type": "address"
        }
      ],
      "stateMutability": "view",
      "type": "function"
    },
    {
      "inputs": [],
      "name": "renounceOwnership",
      "outputs": [],
      "stateMutability": "nonpayable",
      "type": "function"
    },
    {
      "inputs": [
        {
          "internalType": "address",
          "name": "_to",
          "type": "address"
        },
        {
          "internalType": "uint256",
          "name": "_amount",
          "type": "uint256"
        }
      ],
      "name": "send",
      "outputs": [
        {
          "internalType": "bool",
          "name": "",
          "type": "bool"
        }
      ],
      "stateMutability": "nonpayable",
      "type": "function"
    },
    {
      "inputs": [
        {
          "internalType": "uint256",
          "name": "_burnRate",
          "type": "uint256"
        }
      ],
      "name": "setBurnRate",
      "outputs": [],
      "stateMutability": "nonpayable",
      "type": "function"
    },
    {
      "inputs": [],
      "name": "symbol",
      "outputs": [
        {
          "internalType": "string",
          "name": "",
          "type": "string"
        }
      ],
      "stateMutability": "view",
      "type": "function"
    },
    {
      "inputs": [
        {
          "internalType": "uint256",
          "name": "",
          "type": "uint256"
        }
      ],
      "name": "tokenRarity",
      "outputs": [
        {
          "internalType": "uint256",
          "name": "",
          "type": "uint256"
        }
      ],
      "stateMutability": "view",
      "type": "function"
    },
    {
      "inputs": [],
      "name": "totalSupply",
      "outputs": [
        {
          "internalType": "uint256",
          "name": "",
          "type": "uint256"
        }
      ],
      "stateMutability": "view",
      "type": "function"
    },
    {
      "inputs": [
        {
          "internalType": "address",
          "name": "_to",
          "type": "address"
        },
        {
          "internalType": "uint256",
          "name": "_amount",
          "type": "uint256"
        }
      ],
      "name": "transfer",
      "outputs": [
        {
          "internalType": "bool",
          "name": "",
          "type": "bool"
        }
      ],
      "stateMutability": "nonpayable",
      "type": "function"
    },
    {
      "inputs": [
        {
          "internalType": "address",
          "name": "_from",
          "type": "address"
        },
        {
          "internalType": "address",
          "name": "_to",
          "type": "address"
        },
        {
          "internalType": "uint256",
          "name": "_amount",
          "type": "uint256"
        }
      ],
      "name": "transferFrom",
      "outputs": [
        {
          "internalType": "bool",
          "name": "",
          "type": "bool"
        }
      ],
      "stateMutability": "nonpayable",
      "type": "function"
    },
    {
      "inputs": [
        {
          "internalType": "address",
          "name": "newOwner",
          "type": "address"
        }
      ],
      "name": "transferOwnership",
      "outputs": [],
      "stateMutability": "nonpayable",
      "type": "function"
    },
    {
      "stateMutability": "payable",
      "type": "receive"
    }
  ],
  "bytecode": "0x60806040526000600660146101000a81548160ff02191690831515021790555060006007553480156200003157600080fd5b5060405162002541380380620025418339818101604052810190620000579190620005c3565b806040518060400160405280600b81526020017f476f6473204c65676163790000000000000000000000000000000000000000008152506040518060400160405280600381526020017f474c5400000000000000000000000000000000000000000000000000000000008152508160039081620000d591906200086f565b508060049081620000e791906200086f565b505050600073ffffffffffffffffffffffffffffffffffffffff168173ffffffffffffffffffffffffffffffffffffffff16036200015f5760006040517f1e4fbdf700000000000000000000000000000000000000000000000000000000815260040162000156919062000967565b60405180910390fd5b6200017081620001d660201b60201c565b5080600660006101000a81548173ffffffffffffffffffffffffffffffffffffffff021916908373ffffffffffffffffffffffffffffffffffffffff160217905550620001cf306a52b7d2dcc80cd2e40000006200029c60201b60201c565b5062000a59565b6000600560009054906101000a900473ffffffffffffffffffffffffffffffffffffffff16905081600560006101000a81548173ffffffffffffffffffffffffffffffffffffffff021916908373ffffffffffffffffffffffffffffffffffffffff1602179055508173ffffffffffffffffffffffffffffffffffffffff168173ffffffffffffffffffffffffffffffffffffffff167f8be0079c531659141344cd1fd0a4f28419497f9722a3daafe3b4186f6b6457e060405160405180910390a35050565b600073ffffffffffffffffffffffffffffffffffffffff168273ffffffffffffffffffffffffffffffffffffffff1603620003115760006040517fec442f0500000000000000000000000000000000000000000000000000000000815260040162000308919062000967565b60405180910390fd5b62000325600083836200032960201b60201c565b5050565b600073ffffffffffffffffffffffffffffffffffffffff168373ffffffffffffffffffffffffffffffffffffffff16036200037f578060026000828254620003729190620009b3565b9250508190555062000455565b60008060008573ffffffffffffffffffffffffffffffffffffffff1673ffffffffffffffffffffffffffffffffffffffff168152602001908152602001600020549050818110156200040e578381836040517fe450d38c0000000000000000000000000000000000000000000000000000000081526004016200040593929190620009ff565b60405180910390fd5b8181036000808673ffffffffffffffffffffffffffffffffffffffff1673ffffffffffffffffffffffffffffffffffffffff16815260200190815260200160002081905550505b600073ffffffffffffffffffffffffffffffffffffffff168273ffffffffffffffffffffffffffffffffffffffff1603620004a05780600260008282540392505081905550620004ed565b806000808473ffffffffffffffffffffffffffffffffffffffff1673ffffffffffffffffffffffffffffffffffffffff168152602001908152602001600020600082825401925050819055505b8173ffffffffffffffffffffffffffffffffffffffff168373ffffffffffffffffffffffffffffffffffffffff167fddf252ad1be2c89b69c2b068fc378daa952ba7f163c4a11628f55a4df523b3ef836040516200054c919062000a3c565b60405180910390a3505050565b600080fd5b600073ffffffffffffffffffffffffffffffffffffffff82169050919050565b60006200058b826200055e565b9050919050565b6200059d816200057e565b8114620005a957600080fd5b50565b600081519050620005bd8162000592565b92915050565b600060208284031215620005dc57620005db62000559565b5b6000620005ec84828501620005ac565b91505092915050565b600081519050919050565b7f4e487b7100000000000000000000000000000000000000000000000000000000600052604160045260246000fd5b7f4e487b7100000000000000000000000000000000000000000000000000000000600052602260045260246000fd5b600060028204905060018216806200067757607f821691505b6020821081036200068d576200068c6200062f565b5b50919050565b60008190508160005260206000209050919050565b60006020601f8301049050919050565b600082821b905092915050565b600060088302620006f77fffffffffffffffffffffffffffffffffffffffffffffffffffffffffffffffff82620006b8565b620007038683620006b8565b95508019841693508086168417925050509392505050565b6000819050919050565b6000819050919050565b6000620007506200074a62000744846200071b565b62000725565b6200071b565b9050919050565b6000819050919050565b6200076c836200072f565b620007846200077b8262000757565b848454620006c5565b825550505050565b600090565b6200079b6200078c565b620007a881848462000761565b505050565b5b81811015620007d057620007c460008262000791565b600181019050620007ae565b5050565b601f8211156200081f57620007e98162000693565b620007f484620006a8565b8101602085101562000804578190505b6200081c6200081385620006a8565b830182620007ad565b50505b505050565b600082821c905092915050565b6000620008446000198460080262000824565b1980831691505092915050565b60006200085f838362000831565b9150826002028217905092915050565b6200087a82620005f5565b67ffffffffffffffff81111562000896576200089562000600565b5b620008a282546200065e565b620008af828285620007d4565b600060209050601f831160018114620008e75760008415620008d2578287015190505b620008de858262000851565b8655506200094e565b601f198416620008f78662000693565b60005b828110156200092157848901518255600182019150602085019450602081019050620008fa565b868310156200094157848901516200093d601f89168262000831565b8355505b6001600288020188555050505b505050505050565b62000961816200057e565b82525050565b60006020820190506200097e600083018462000956565b92915050565b7f4e487b7100000000000000000000000000000000000000000000000000000000600052601160045260246000fd5b6000620009c0826200071b565b9150620009cd836200071b565b9250828201905080821115620009e857620009e762000984565b5b92915050565b620009f9816200071b565b82525050565b600060608201905062000a16600083018662000956565b62000a256020830185620009ee565b62000a346040830184620009ee565b949350505050565b600060208201905062000a536000830184620009ee565b92915050565b611ad88062000a696000396000f3fe6080604052600436106101395760003560e01c80638da5cb5b116100ab578063afb0a3691161006f578063afb0a3691461045f578063bed998501461049c578063c0e5e0ba146104c7578063d0679d34146104de578063dd62ed3e1461051b578063f2fde38b146105585761018e565b80638da5cb5b146103785780638f32d59b146103a357806395d89b41146103ce578063a0712d68146103f9578063a9059cbb146104225761018e565b8063313ce567116100fd578063313ce5671461028c57806344a8af5b146102b75780636eba300a146102e25780636f9fb98a146102f957806370a0823114610324578063715018a6146103615761018e565b806306fdde0314610193578063095ea7b3146101be57806318160ddd146101fb578063189d165e1461022657806323b872dd1461024f5761018e565b3661018e573373ffffffffffffffffffffffffffffffffffffffff167f939e51ac2fd009b158d6344f7e68a83d8d18d9b0cc88cf514aac6aaa9cad2a183460405161018491906113b6565b60405180910390a2005b600080fd5b34801561019f57600080fd5b506101a8610581565b6040516101b59190611461565b60405180910390f35b3480156101ca57600080fd5b506101e560048036038101906101e09190611512565b610613565b6040516101f2919061156d565b60405180910390f35b34801561020757600080fd5b50610210610636565b60405161021d91906113b6565b60405180910390f35b34801561023257600080fd5b5061024d60048036038101906102489190611588565b610640565b005b34801561025b57600080fd5b50610276600480360381019061027191906115b5565b610697565b604051610283919061156d565b60405180910390f35b34801561029857600080fd5b506102a161080d565b6040516102ae9190611624565b60405180910390f35b3480156102c357600080fd5b506102cc610816565b6040516102d9919061156d565b60405180910390f35b3480156102ee57600080fd5b506102f7610829565b005b34801561030557600080fd5b5061030e61084e565b60405161031b91906113b6565b60405180910390f35b34801561033057600080fd5b5061034b6004803603810190610346919061163f565b610856565b60405161035891906113b6565b60405180910390f35b34801561036d57600080fd5b5061037661089e565b005b34801561038457600080fd5b5061038d6108b2565b60405161039a919061167b565b60405180910390f35b3480156103af57600080fd5b506103b86108dc565b6040516103c5919061156d565b60405180910390f35b3480156103da57600080fd5b506103e3610919565b6040516103f09190611461565b60405180910390f35b34801561040557600080fd5b50610420600480360381019061041b9190611588565b6109ab565b005b34801561042e57600080fd5b5061044960048036038101906104449190611512565b6109c0565b604051610456919061156d565b60405180910390f35b34801561046b57600080fd5b5061048660048036038101906104819190611588565b610ad3565b60405161049391906113b6565b60405180910390f35b3480156104a857600080fd5b506104b1610aeb565b6040516104be91906113b6565b60405180910390f35b3480156104d357600080fd5b506104dc610af1565b005b3480156104ea57600080fd5b5061050560048036038101906105009190611512565b610b16565b604051610512919061156d565b60405180910390f35b34801561052757600080fd5b50610542600480360381019061053d9190611696565b610b35565b60405161054f91906113b6565b60405180910390f35b34801561056457600080fd5b5061057f600480360381019061057a919061163f565b610bbc565b005b60606003805461059090611705565b80601f01602080910402602001604051908101604052809291908181526020018280546105bc90611705565b80156106095780601f106105de57610100808354040283529160200191610609565b820191906000526020600020905b8154815290600101906020018083116105ec57829003601f168201915b5050505050905090565b60008061061e610c42565b905061062b818585610c4a565b600191505092915050565b6000600254905090565b610648610c5c565b6103e881111561068d576040517f08c379a0000000000000000000000000000000000000000000000000000000008152600401610684906117a8565b60405180910390fd5b8060078190555050565b60008082116106db576040517f08c379a00000000000000000000000000000000000000000000000000000000081526004016106d290611814565b60405180910390fd5b60006106e78533610b35565b90508281101561072c576040517f08c379a000000000000000000000000000000000000000000000000000000000815260040161072390611880565b60405180910390fd5b6000600660149054906101000a900460ff16801561074c57506000600754115b1561076f576103e86007548561076291906118cf565b61076c9190611940565b90505b6000818561077d9190611971565b90508461078988610856565b10156107ca576040517f08c379a00000000000000000000000000000000000000000000000000000000081526004016107c190611a17565b60405180910390fd5b6107d5878783610ce3565b6107eb873387866107e69190611971565b610c4a565b60008211156107ff576107fe8783610dd7565b5b600193505050509392505050565b60006012905090565b600660149054906101000a900460ff1681565b610831610c5c565b6000600660146101000a81548160ff021916908315150217905550565b600047905090565b60008060008373ffffffffffffffffffffffffffffffffffffffff1673ffffffffffffffffffffffffffffffffffffffff168152602001908152602001600020549050919050565b6108a6610c5c565b6108b06000610e59565b565b6000600560009054906101000a900473ffffffffffffffffffffffffffffffffffffffff16905090565b60006108e66108b2565b73ffffffffffffffffffffffffffffffffffffffff163373ffffffffffffffffffffffffffffffffffffffff1614905090565b60606004805461092890611705565b80601f016020809104026020016040519081016040528092919081815260200182805461095490611705565b80156109a15780601f10610976576101008083540402835291602001916109a1565b820191906000526020600020905b81548152906001019060200180831161098457829003601f168201915b5050505050905090565b6109b3610c5c565b6109bd3082610f1f565b50565b6000808211610a04576040517f08c379a00000000000000000000000000000000000000000000000000000000081526004016109fb90611814565b60405180910390fd5b6000600660149054906101000a900460ff168015610a2457506000600754115b15610a47576103e860075484610a3a91906118cf565b610a449190611940565b90505b60008184610a559190611971565b90506000610a6233610856565b905084811015610aa7576040517f08c379a0000000000000000000000000000000000000000000000000000000008152600401610a9e90611a17565b60405180910390fd5b610ab2338784610ce3565b6000831115610ac657610ac53384610dd7565b5b6001935050505092915050565b60086020528060005260406000206000915090505481565b60075481565b610af9610c5c565b6001600660146101000a81548160ff021916908315150217905550565b6000610b20610c5c565b610b2b308484610ce3565b6001905092915050565b6000600160008473ffffffffffffffffffffffffffffffffffffffff1673ffffffffffffffffffffffffffffffffffffffff16815260200190815260200160002060008373ffffffffffffffffffffffffffffffffffffffff1673ffffffffffffffffffffffffffffffffffffffff16815260200190815260200160002054905092915050565b610bc4610c5c565b600073ffffffffffffffffffffffffffffffffffffffff168173ffffffffffffffffffffffffffffffffffffffff1603610c365760006040517f1e4fbdf7000000000000000000000000000000000000000000000000000000008152600401610c2d919061167b565b60405180910390fd5b610c3f81610e59565b50565b600033905090565b610c578383836001610fa1565b505050565b610c64610c42565b73ffffffffffffffffffffffffffffffffffffffff16610c826108b2565b73ffffffffffffffffffffffffffffffffffffffff1614610ce157610ca5610c42565b6040517f118cdaa7000000000000000000000000000000000000000000000000000000008152600401610cd8919061167b565b60405180910390fd5b565b600073ffffffffffffffffffffffffffffffffffffffff168373ffffffffffffffffffffffffffffffffffffffff1603610d555760006040517f96c6fd1e000000000000000000000000000000000000000000000000000000008152600401610d4c919061167b565b60405180910390fd5b600073ffffffffffffffffffffffffffffffffffffffff168273ffffffffffffffffffffffffffffffffffffffff1603610dc75760006040517fec442f05000000000000000000000000000000000000000000000000000000008152600401610dbe919061167b565b60405180910390fd5b610dd2838383611178565b505050565b600073ffffffffffffffffffffffffffffffffffffffff168273ffffffffffffffffffffffffffffffffffffffff1603610e495760006040517f96c6fd1e000000000000000000000000000000000000000000000000000000008152600401610e40919061167b565b60405180910390fd5b610e5582600083611178565b5050565b6000600560009054906101000a900473ffffffffffffffffffffffffffffffffffffffff16905081600560006101000a81548173ffffffffffffffffffffffffffffffffffffffff021916908373ffffffffffffffffffffffffffffffffffffffff1602179055508173ffffffffffffffffffffffffffffffffffffffff168173ffffffffffffffffffffffffffffffffffffffff167f8be0079c531659141344cd1fd0a4f28419497f9722a3daafe3b4186f6b6457e060405160405180910390a35050565b600073ffffffffffffffffffffffffffffffffffffffff168273ffffffffffffffffffffffffffffffffffffffff1603610f915760006040517fec442f05000000000000000000000000000000000000000000000000000000008152600401610f88919061167b565b60405180910390fd5b610f9d60008383611178565b5050565b600073ffffffffffffffffffffffffffffffffffffffff168473ffffffffffffffffffffffffffffffffffffffff16036110135760006040517fe602df0500000000000000000000000000000000000000000000000000000000815260040161100a919061167b565b60405180910390fd5b600073ffffffffffffffffffffffffffffffffffffffff168373ffffffffffffffffffffffffffffffffffffffff16036110855760006040517f94280d6200000000000000000000000000000000000000000000000000000000815260040161107c919061167b565b60405180910390fd5b81600160008673ffffffffffffffffffffffffffffffffffffffff1673ffffffffffffffffffffffffffffffffffffffff16815260200190815260200160002060008573ffffffffffffffffffffffffffffffffffffffff1673ffffffffffffffffffffffffffffffffffffffff168152602001908152602001600020819055508015611172578273ffffffffffffffffffffffffffffffffffffffff168473ffffffffffffffffffffffffffffffffffffffff167f8c5be1e5ebec7d5bd14f71427d1e84f3dd0314c0f7b2291e5b200ac8c7c3b9258460405161116991906113b6565b60405180910390a35b50505050565b600073ffffffffffffffffffffffffffffffffffffffff168373ffffffffffffffffffffffffffffffffffffffff16036111ca5780600260008282546111be9190611a37565b9250508190555061129d565b60008060008573ffffffffffffffffffffffffffffffffffffffff1673ffffffffffffffffffffffffffffffffffffffff16815260200190815260200160002054905081811015611256578381836040517fe450d38c00000000000000000000000000000000000000000000000000000000815260040161124d93929190611a6b565b60405180910390fd5b8181036000808673ffffffffffffffffffffffffffffffffffffffff1673ffffffffffffffffffffffffffffffffffffffff16815260200190815260200160002081905550505b600073ffffffffffffffffffffffffffffffffffffffff168273ffffffffffffffffffffffffffffffffffffffff16036112e65780600260008282540392505081905550611333565b806000808473ffffffffffffffffffffffffffffffffffffffff1673ffffffffffffffffffffffffffffffffffffffff168152602001908152602001600020600082825401925050819055505b8173ffffffffffffffffffffffffffffffffffffffff168373ffffffffffffffffffffffffffffffffffffffff167fddf252ad1be2c89b69c2b068fc378daa952ba7f163c4a11628f55a4df523b3ef8360405161139091906113b6565b60405180910390a3505050565b6000819050919050565b6113b08161139d565b82525050565b60006020820190506113cb60008301846113a7565b92915050565b600081519050919050565b600082825260208201905092915050565b60005b8381101561140b5780820151818401526020810190506113f0565b60008484015250505050565b6000601f19601f8301169050919050565b6000611433826113d1565b61143d81856113dc565b935061144d8185602086016113ed565b61145681611417565b840191505092915050565b6000602082019050818103600083015261147b8184611428565b905092915050565b600080fd5b600073ffffffffffffffffffffffffffffffffffffffff82169050919050565b60006114b382611488565b9050919050565b6114c3816114a8565b81146114ce57600080fd5b50565b6000813590506114e0816114ba565b92915050565b6114ef8161139d565b81146114fa57600080fd5b50565b60008135905061150c816114e6565b92915050565b6000806040838503121561152957611528611483565b5b6000611537858286016114d1565b9250506020611548858286016114fd565b9150509250929050565b60008115159050919050565b61156781611552565b82525050565b6000602082019050611582600083018461155e565b92915050565b60006020828403121561159e5761159d611483565b5b60006115ac848285016114fd565b91505092915050565b6000806000606084860312156115ce576115cd611483565b5b60006115dc868287016114d1565b93505060206115ed868287016114d1565b92505060406115fe868287016114fd565b9150509250925092565b600060ff82169050919050565b61161e81611608565b82525050565b60006020820190506116396000830184611615565b92915050565b60006020828403121561165557611654611483565b5b6000611663848285016114d1565b91505092915050565b611675816114a8565b82525050565b6000602082019050611690600083018461166c565b92915050565b600080604083850312156116ad576116ac611483565b5b60006116bb858286016114d1565b92505060206116cc858286016114d1565b9150509250929050565b7f4e487b7100000000000000000000000000000000000000000000000000000000600052602260045260246000fd5b6000600282049050600182168061171d57607f821691505b6020821081036117305761172f6116d6565b5b50919050565b7f4275726e2072617465206d757374206265206c657373207468616e206f72206560008201527f7175616c20746f20313030300000000000000000000000000000000000000000602082015250565b6000611792602c836113dc565b915061179d82611736565b604082019050919050565b600060208201905081810360008301526117c181611785565b9050919050565b7f416d6f756e74206d7573742062652067726561746572207468616e207a65726f600082015250565b60006117fe6020836113dc565b9150611809826117c8565b602082019050919050565b6000602082019050818103600083015261182d816117f1565b9050919050565b7f416c6c6f77616e63652065786365656465640000000000000000000000000000600082015250565b600061186a6012836113dc565b915061187582611834565b602082019050919050565b600060208201905081810360008301526118998161185d565b9050919050565b7f4e487b7100000000000000000000000000000000000000000000000000000000600052601160045260246000fd5b60006118da8261139d565b91506118e58361139d565b92508282026118f38161139d565b9150828204841483151761190a576119096118a0565b5b5092915050565b7f4e487b7100000000000000000000000000000000000000000000000000000000600052601260045260246000fd5b600061194b8261139d565b91506119568361139d565b92508261196657611965611911565b5b828204905092915050565b600061197c8261139d565b91506119878361139d565b925082820390508181111561199f5761199e6118a0565b5b92915050565b7f496e73756666696369656e742062616c616e636520666f72207472616e73666560008201527f7200000000000000000000000000000000000000000000000000000000000000602082015250565b6000611a016021836113dc565b9150611a0c826119a5565b604082019050919050565b60006020820190508181036000830152611a30816119f4565b9050919050565b6000611a428261139d565b9150611a4d8361139d565b9250828201905080821115611a6557611a646118a0565b5b92915050565b6000606082019050611a80600083018661166c565b611a8d60208301856113a7565b611a9a60408301846113a7565b94935050505056fea264697066735822122086ea0093565e273f5b4cdc9f81649511351d4f1f493464e8b8b8c4addb3e7eb164736f6c63430008180033",
  "linkReferences": {},
  "deployedLinkReferences": {}
}